{
  "contractName": "Game",
  "abi": [
    {
      "inputs": [],
      "stateMutability": "nonpayable",
      "type": "constructor"
    },
    {
      "anonymous": false,
      "inputs": [
        {
          "indexed": true,
          "internalType": "bytes32",
          "name": "role",
          "type": "bytes32"
        },
        {
          "indexed": true,
          "internalType": "bytes32",
          "name": "previousAdminRole",
          "type": "bytes32"
        },
        {
          "indexed": true,
          "internalType": "bytes32",
          "name": "newAdminRole",
          "type": "bytes32"
        }
      ],
      "name": "RoleAdminChanged",
      "type": "event"
    },
    {
      "anonymous": false,
      "inputs": [
        {
          "indexed": true,
          "internalType": "bytes32",
          "name": "role",
          "type": "bytes32"
        },
        {
          "indexed": true,
          "internalType": "address",
          "name": "account",
          "type": "address"
        },
        {
          "indexed": true,
          "internalType": "address",
          "name": "sender",
          "type": "address"
        }
      ],
      "name": "RoleGranted",
      "type": "event"
    },
    {
      "anonymous": false,
      "inputs": [
        {
          "indexed": true,
          "internalType": "bytes32",
          "name": "role",
          "type": "bytes32"
        },
        {
          "indexed": true,
          "internalType": "address",
          "name": "account",
          "type": "address"
        },
        {
          "indexed": true,
          "internalType": "address",
          "name": "sender",
          "type": "address"
        }
      ],
      "name": "RoleRevoked",
      "type": "event"
    },
    {
      "stateMutability": "payable",
      "type": "fallback",
      "payable": true
    },
    {
      "inputs": [],
      "name": "DEFAULT_ADMIN_ROLE",
      "outputs": [
        {
          "internalType": "bytes32",
          "name": "",
          "type": "bytes32"
        }
      ],
      "stateMutability": "view",
      "type": "function",
      "constant": true
    },
    {
      "inputs": [],
      "name": "GAME_MASTER",
      "outputs": [
        {
          "internalType": "bytes32",
          "name": "",
          "type": "bytes32"
        }
      ],
      "stateMutability": "view",
      "type": "function",
      "constant": true
    },
    {
      "inputs": [],
      "name": "GAME_NAME",
      "outputs": [
        {
          "internalType": "string",
          "name": "",
          "type": "string"
        }
      ],
      "stateMutability": "view",
      "type": "function",
      "constant": true
    },
    {
      "inputs": [
        {
          "internalType": "bytes32",
          "name": "role",
          "type": "bytes32"
        }
      ],
      "name": "getRoleAdmin",
      "outputs": [
        {
          "internalType": "bytes32",
          "name": "",
          "type": "bytes32"
        }
      ],
      "stateMutability": "view",
      "type": "function",
      "constant": true
    },
    {
      "inputs": [
        {
          "internalType": "bytes32",
          "name": "role",
          "type": "bytes32"
        },
        {
          "internalType": "address",
          "name": "account",
          "type": "address"
        }
      ],
      "name": "grantRole",
      "outputs": [],
      "stateMutability": "nonpayable",
      "type": "function"
    },
    {
      "inputs": [
        {
          "internalType": "bytes32",
          "name": "role",
          "type": "bytes32"
        },
        {
          "internalType": "address",
          "name": "account",
          "type": "address"
        }
      ],
      "name": "hasRole",
      "outputs": [
        {
          "internalType": "bool",
          "name": "",
          "type": "bool"
        }
      ],
      "stateMutability": "view",
      "type": "function",
      "constant": true
    },
    {
      "inputs": [
        {
          "internalType": "bytes32",
          "name": "role",
          "type": "bytes32"
        },
        {
          "internalType": "address",
          "name": "account",
          "type": "address"
        }
      ],
      "name": "renounceRole",
      "outputs": [],
      "stateMutability": "nonpayable",
      "type": "function"
    },
    {
      "inputs": [
        {
          "internalType": "bytes32",
          "name": "role",
          "type": "bytes32"
        },
        {
          "internalType": "address",
          "name": "account",
          "type": "address"
        }
      ],
      "name": "revokeRole",
      "outputs": [],
      "stateMutability": "nonpayable",
      "type": "function"
    },
    {
      "inputs": [
        {
          "internalType": "bytes4",
          "name": "interfaceId",
          "type": "bytes4"
        }
      ],
      "name": "supportsInterface",
      "outputs": [
        {
          "internalType": "bool",
          "name": "",
          "type": "bool"
        }
      ],
      "stateMutability": "view",
      "type": "function",
      "constant": true
    },
    {
      "stateMutability": "payable",
      "type": "receive",
      "payable": true
    },
    {
      "inputs": [],
      "name": "getGameName",
      "outputs": [
        {
          "internalType": "string",
          "name": "",
          "type": "string"
        }
      ],
      "stateMutability": "pure",
      "type": "function",
      "constant": true
    },
    {
      "inputs": [
        {
          "internalType": "string",
          "name": "name",
          "type": "string"
        },
        {
          "internalType": "uint256",
          "name": "price",
          "type": "uint256"
        },
        {
          "internalType": "uint256",
          "name": "qtyMAX",
          "type": "uint256"
        }
      ],
      "name": "createItem",
      "outputs": [],
      "stateMutability": "nonpayable",
      "type": "function"
    },
    {
      "inputs": [],
      "name": "getArmoryWeight",
      "outputs": [
        {
          "internalType": "uint256",
          "name": "",
          "type": "uint256"
        }
      ],
      "stateMutability": "view",
      "type": "function",
      "constant": true
    },
    {
      "inputs": [
        {
          "internalType": "uint256",
          "name": "id",
          "type": "uint256"
        }
      ],
      "name": "getItemFromArmory",
      "outputs": [
        {
          "internalType": "string",
          "name": "",
          "type": "string"
        },
        {
          "internalType": "uint256",
          "name": "",
          "type": "uint256"
        },
        {
          "internalType": "uint256",
          "name": "",
          "type": "uint256"
        }
      ],
      "stateMutability": "view",
      "type": "function",
      "constant": true
    },
    {
      "inputs": [],
      "name": "getGold",
      "outputs": [
        {
          "internalType": "uint256",
          "name": "",
          "type": "uint256"
        }
      ],
      "stateMutability": "view",
      "type": "function",
      "constant": true
    },
    {
      "inputs": [
        {
          "internalType": "address",
          "name": "who",
          "type": "address"
        },
        {
          "internalType": "uint256",
          "name": "goldAdd",
          "type": "uint256"
        }
      ],
      "name": "updatePlayerInfo",
      "outputs": [],
      "stateMutability": "nonpayable",
      "type": "function"
    },
    {
      "inputs": [],
      "name": "drawback",
      "outputs": [],
      "stateMutability": "nonpayable",
      "type": "function"
    },
    {
      "inputs": [
        {
          "internalType": "uint256",
          "name": "id",
          "type": "uint256"
        },
        {
          "internalType": "uint256",
          "name": "num",
          "type": "uint256"
        }
      ],
      "name": "getOwner",
      "outputs": [
        {
          "internalType": "address",
          "name": "",
          "type": "address"
        }
      ],
      "stateMutability": "view",
      "type": "function",
      "constant": true
    },
    {
      "inputs": [],
      "name": "getInventoryWeight",
      "outputs": [
        {
          "internalType": "uint256",
          "name": "",
          "type": "uint256"
        }
      ],
      "stateMutability": "view",
      "type": "function",
      "constant": true
    },
    {
      "inputs": [
        {
          "internalType": "uint256",
          "name": "idInventory",
          "type": "uint256"
        }
      ],
      "name": "getItemFromInvenory",
      "outputs": [
        {
          "internalType": "string",
          "name": "",
          "type": "string"
        },
        {
          "internalType": "uint256",
          "name": "",
          "type": "uint256"
        },
        {
          "internalType": "uint256",
          "name": "",
          "type": "uint256"
        }
      ],
      "stateMutability": "view",
      "type": "function",
      "constant": true
    },
    {
      "inputs": [
        {
          "internalType": "uint256",
          "name": "id",
          "type": "uint256"
        }
      ],
      "name": "buyItem",
      "outputs": [],
      "stateMutability": "nonpayable",
      "type": "function"
    },
    {
      "inputs": [
        {
          "internalType": "uint256",
          "name": "idInventory",
          "type": "uint256"
        }
      ],
      "name": "sellItem",
      "outputs": [],
      "stateMutability": "nonpayable",
      "type": "function"
    }
  ],
  "bytecode": "0x60806040523480156200001157600080fd5b50620000447f3c13b5abbc85050d426f9500a16cfd9f7d94261c880b9a4e03d584d28c06059c336200017a60201b60201c565b6200008e6040518060400160405280600581526020017f5377617264000000000000000000000000000000000000000000000000000000815250606460326200019060201b60201c565b620000d96040518060400160405280600681526020017f48616d6d657200000000000000000000000000000000000000000000000000008152506101f4600a6200019060201b60201c565b620001236040518060400160405280600381526020017f426f77000000000000000000000000000000000000000000000000000000000081525060c860056200019060201b60201c565b620001746040518060400160405280600581526020017f5370656172000000000000000000000000000000000000000000000000000000815250670de0b6b3a764000060016200019060201b60201c565b6200057b565b6200018c82826200025a60201b60201c565b5050565b620001c27f3c13b5abbc85050d426f9500a16cfd9f7d94261c880b9a4e03d584d28c06059c336200034b60201b60201c565b62000204576040517f08c379a0000000000000000000000000000000000000000000000000000000008152600401620001fb90620004f4565b60405180910390fd5b60006001808160018154018082558091505003906000526020600020906006020190508381600001908051906020019062000241929190620003bd565b5082816001018190555081816002018190555050505050565b6200026c82826200034b60201b60201c565b6200034757600160008084815260200190815260200160002060000160008373ffffffffffffffffffffffffffffffffffffffff1673ffffffffffffffffffffffffffffffffffffffff16815260200190815260200160002060006101000a81548160ff021916908315150217905550620002ec620003b560201b60201c565b73ffffffffffffffffffffffffffffffffffffffff168173ffffffffffffffffffffffffffffffffffffffff16837f2f8788117e7eff1d82e926ec794901d17c78024a50270940304540a733656f0d60405160405180910390a45b5050565b600080600084815260200190815260200160002060000160008373ffffffffffffffffffffffffffffffffffffffff1673ffffffffffffffffffffffffffffffffffffffff16815260200190815260200160002060009054906101000a900460ff16905092915050565b600033905090565b828054620003cb9062000545565b90600052602060002090601f016020900481019282620003ef57600085556200043b565b82601f106200040a57805160ff19168380011785556200043b565b828001600101855582156200043b579182015b828111156200043a5782518255916020019190600101906200041d565b5b5090506200044a91906200044e565b5090565b5b80821115620004695760008160009055506001016200044f565b5090565b600082825260208201905092915050565b7f446576692065737365726520756e2047616d65204d617374657220706572206560008201527f7365677569726520717565737461206f706572617a696f6e6500000000000000602082015250565b6000620004dc6039836200046d565b9150620004e9826200047e565b604082019050919050565b600060208201905081810360008301526200050f81620004cd565b9050919050565b7f4e487b7100000000000000000000000000000000000000000000000000000000600052602260045260246000fd5b600060028204905060018216806200055e57607f821691505b6020821081141562000575576200057462000516565b5b50919050565b612999806200058b6000396000f3fe60806040526004361061012e5760003560e01c806391d14854116100ab578063b364e0071161006f578063b364e00714610486578063bbda33d9146104c5578063d547741f146104f0578063d7f8a18d14610519578063e39bc13a14610556578063e7fb74c7146105955761018e565b806391d148541461039f57806399597b70146103dc578063a217fddf14610407578063a2d37b8614610432578063adb18e2f1461045b5761018e565b80632f2ff15d116100f25780632f2ff15d146102ce57806336568abe146102f757806342f06532146103205780635aed78021461034b57806391b6be9a146103765761018e565b806301ffc9a7146101e9578063108155bc1461022657806320e573661461024f5780632409dfa21461027a578063248a9ca3146102915761018e565b3661018e5734600260003373ffffffffffffffffffffffffffffffffffffffff1673ffffffffffffffffffffffffffffffffffffffff16815260200190815260200160002060000160008282546101859190611d5e565b92505081905550005b34600260003373ffffffffffffffffffffffffffffffffffffffff1673ffffffffffffffffffffffffffffffffffffffff16815260200190815260200160002060000160008282546101e09190611d5e565b92505081905550005b3480156101f557600080fd5b50610210600480360381019061020b9190611e20565b6105be565b60405161021d9190611e68565b60405180910390f35b34801561023257600080fd5b5061024d60048036038101906102489190611ff5565b610638565b005b34801561025b57600080fd5b506102646106f5565b6040516102719190612073565b60405180910390f35b34801561028657600080fd5b5061028f610742565b005b34801561029d57600080fd5b506102b860048036038101906102b391906120c4565b6107f4565b6040516102c59190612100565b60405180910390f35b3480156102da57600080fd5b506102f560048036038101906102f09190612179565b610813565b005b34801561030357600080fd5b5061031e60048036038101906103199190612179565b61083c565b005b34801561032c57600080fd5b506103356108bf565b6040516103429190612073565b60405180910390f35b34801561035757600080fd5b50610360610909565b60405161036d9190612241565b60405180910390f35b34801561038257600080fd5b5061039d60048036038101906103989190612263565b610942565b005b3480156103ab57600080fd5b506103c660048036038101906103c19190612179565b610d62565b6040516103d39190611e68565b60405180910390f35b3480156103e857600080fd5b506103f1610dcc565b6040516103fe9190612100565b60405180910390f35b34801561041357600080fd5b5061041c610df0565b6040516104299190612100565b60405180910390f35b34801561043e57600080fd5b5061045960048036038101906104549190612290565b610df7565b005b34801561046757600080fd5b50610470610ebd565b60405161047d9190612073565b60405180910390f35b34801561049257600080fd5b506104ad60048036038101906104a89190612263565b610eca565b6040516104bc939291906122d0565b60405180910390f35b3480156104d157600080fd5b506104da61102b565b6040516104e79190612241565b60405180910390f35b3480156104fc57600080fd5b5061051760048036038101906105129190612179565b611068565b005b34801561052557600080fd5b50610540600480360381019061053b919061230e565b611091565b60405161054d919061235d565b60405180910390f35b34801561056257600080fd5b5061057d60048036038101906105789190612263565b611155565b60405161058c939291906122d0565b60405180910390f35b3480156105a157600080fd5b506105bc60048036038101906105b79190612263565b61130e565b005b60007f7965db0b000000000000000000000000000000000000000000000000000000007bffffffffffffffffffffffffffffffffffffffffffffffffffffffff1916827bffffffffffffffffffffffffffffffffffffffffffffffffffffffff19161480610631575061063082611776565b5b9050919050565b6106627f3c13b5abbc85050d426f9500a16cfd9f7d94261c880b9a4e03d584d28c06059c33610d62565b6106a1576040517f08c379a0000000000000000000000000000000000000000000000000000000008152600401610698906123ea565b60405180910390fd5b6000600180816001815401808255809150500390600052602060002090600602019050838160000190805190602001906106dc929190611c82565b5082816001018190555081816002018190555050505050565b6000600260003373ffffffffffffffffffffffffffffffffffffffff1673ffffffffffffffffffffffffffffffffffffffff16815260200190815260200160002060010180549050905090565b61076c7f3c13b5abbc85050d426f9500a16cfd9f7d94261c880b9a4e03d584d28c06059c33610d62565b6107ab576040517f08c379a00000000000000000000000000000000000000000000000000000000081526004016107a2906123ea565b60405180910390fd5b3373ffffffffffffffffffffffffffffffffffffffff166108fc479081150290604051600060405180830381858888f193505050501580156107f1573d6000803e3d6000fd5b50565b6000806000838152602001908152602001600020600101549050919050565b61081c826107f4565b61082d816108286117e0565b6117e8565b6108378383611885565b505050565b6108446117e0565b73ffffffffffffffffffffffffffffffffffffffff168173ffffffffffffffffffffffffffffffffffffffff16146108b1576040517f08c379a00000000000000000000000000000000000000000000000000000000081526004016108a89061247c565b60405180910390fd5b6108bb8282611965565b5050565b6000600260003373ffffffffffffffffffffffffffffffffffffffff1673ffffffffffffffffffffffffffffffffffffffff16815260200190815260200160002060000154905090565b6040518060400160405280600981526020017f546573742047616d65000000000000000000000000000000000000000000000081525081565b600081101580156109975750600260003373ffffffffffffffffffffffffffffffffffffffff1673ffffffffffffffffffffffffffffffffffffffff1681526020019081526020016000206001018054905081105b6109a4576109a361249c565b5b6000600260003373ffffffffffffffffffffffffffffffffffffffff1673ffffffffffffffffffffffffffffffffffffffff16815260200190815260200160002060010182815481106109fa576109f96124cb565b5b9060005260206000209060020201604051806040016040529081600082015481526020016001820154815250509050600260003373ffffffffffffffffffffffffffffffffffffffff1673ffffffffffffffffffffffffffffffffffffffff1681526020019081526020016000206001016001600260003373ffffffffffffffffffffffffffffffffffffffff1673ffffffffffffffffffffffffffffffffffffffff16815260200190815260200160002060010180549050610abd91906124fa565b81548110610ace57610acd6124cb565b5b9060005260206000209060020201600260003373ffffffffffffffffffffffffffffffffffffffff1673ffffffffffffffffffffffffffffffffffffffff1681526020019081526020016000206001018381548110610b3057610b2f6124cb565b5b90600052602060002090600202016000820154816000015560018201548160010155905050600260003373ffffffffffffffffffffffffffffffffffffffff1673ffffffffffffffffffffffffffffffffffffffff168152602001908152602001600020600101805480610ba757610ba661252e565b5b60019003818190600052602060002090600202016000808201600090556001820160009055505090556001816000015181548110610be857610be76124cb565b5b90600052602060002090600602016003016000815480929190610c0a9061255d565b91905055506001816000015181548110610c2757610c266124cb565b5b906000526020600020906006020160050160008260200151815260200190815260200160002060006101000a81549073ffffffffffffffffffffffffffffffffffffffff02191690556001816000015181548110610c8857610c876124cb565b5b906000526020600020906006020160040181602001519080600181540180825580915050600190039060005260206000200160009091909190915055606460506001836000015181548110610ce057610cdf6124cb565b5b906000526020600020906006020160010154610cfc9190612587565b610d069190612610565b600260003373ffffffffffffffffffffffffffffffffffffffff1673ffffffffffffffffffffffffffffffffffffffff1681526020019081526020016000206000016000828254610d579190611d5e565b925050819055505050565b600080600084815260200190815260200160002060000160008373ffffffffffffffffffffffffffffffffffffffff1673ffffffffffffffffffffffffffffffffffffffff16815260200190815260200160002060009054906101000a900460ff16905092915050565b7f3c13b5abbc85050d426f9500a16cfd9f7d94261c880b9a4e03d584d28c06059c81565b6000801b81565b610e217f3c13b5abbc85050d426f9500a16cfd9f7d94261c880b9a4e03d584d28c06059c33610d62565b610e60576040517f08c379a0000000000000000000000000000000000000000000000000000000008152600401610e57906123ea565b60405180910390fd5b80600260008473ffffffffffffffffffffffffffffffffffffffff1673ffffffffffffffffffffffffffffffffffffffff1681526020019081526020016000206000016000828254610eb29190611d5e565b925050819055505050565b6000600180549050905090565b606060008060008410158015610ee4575060018054905084105b610ef157610ef061249c565b5b60018481548110610f0557610f046124cb565b5b906000526020600020906006020160000160018581548110610f2a57610f296124cb565b5b90600052602060002090600602016001015460018681548110610f5057610f4f6124cb565b5b90600052602060002090600602016003015460018781548110610f7657610f756124cb565b5b906000526020600020906006020160020154610f9291906124fa565b828054610f9e90612670565b80601f0160208091040260200160405190810160405280929190818152602001828054610fca90612670565b80156110175780601f10610fec57610100808354040283529160200191611017565b820191906000526020600020905b815481529060010190602001808311610ffa57829003601f168201915b505050505092509250925092509193909250565b60606040518060400160405280600981526020017f546573742047616d650000000000000000000000000000000000000000000000815250905090565b611071826107f4565b6110828161107d6117e0565b6117e8565b61108c8383611965565b505050565b60008083101580156110a7575060018054905083105b6110b4576110b361249c565b5b600082101580156110e95750600183815481106110d4576110d36124cb565b5b90600052602060002090600602016002015482105b6110f6576110f561249c565b5b6001838154811061110a576111096124cb565b5b9060005260206000209060060201600501600083815260200190815260200160002060009054906101000a900473ffffffffffffffffffffffffffffffffffffffff16905092915050565b6060600080600084101580156111af5750600260003373ffffffffffffffffffffffffffffffffffffffff1673ffffffffffffffffffffffffffffffffffffffff1681526020019081526020016000206001018054905084105b6111bc576111bb61249c565b5b6000600260003373ffffffffffffffffffffffffffffffffffffffff1673ffffffffffffffffffffffffffffffffffffffff1681526020019081526020016000206001018581548110611212576112116124cb565b5b90600052602060002090600202016040518060400160405290816000820154815260200160018201548152505090506001816000015181548110611259576112586124cb565b5b90600052602060002090600602016000018160000151826020015182805461128090612670565b80601f01602080910402602001604051908101604052809291908181526020018280546112ac90612670565b80156112f95780601f106112ce576101008083540402835291602001916112f9565b820191906000526020600020905b8154815290600101906020018083116112dc57829003601f168201915b50505050509250935093509350509193909250565b60008110158015611323575060018054905081105b6113305761132f61249c565b5b60018181548110611344576113436124cb565b5b9060005260206000209060060201600201546001828154811061136a576113696124cb565b5b906000526020600020906006020160030154106113bc576040517f08c379a00000000000000000000000000000000000000000000000000000000081526004016113b390612714565b60405180910390fd5b600181815481106113d0576113cf6124cb565b5b906000526020600020906006020160010154600260003373ffffffffffffffffffffffffffffffffffffffff1673ffffffffffffffffffffffffffffffffffffffff168152602001908152602001600020600001541015611466576040517f08c379a000000000000000000000000000000000000000000000000000000000815260040161145d90612780565b60405180910390fd5b6001818154811061147a576114796124cb565b5b906000526020600020906006020160010154600260003373ffffffffffffffffffffffffffffffffffffffff1673ffffffffffffffffffffffffffffffffffffffff16815260200190815260200160002060000160008282546114dd91906124fa565b925050819055506000600182815481106114fa576114f96124cb565b5b90600052602060002090600602016004018054905014156115875760018181548110611529576115286124cb565b5b90600052602060002090600602016004016001828154811061154e5761154d6124cb565b5b90600052602060002090600602016003015490806001815401808255809150506001900390600052602060002001600090919091909150555b60006001828154811061159d5761159c6124cb565b5b906000526020600020906006020160040160018084815481106115c3576115c26124cb565b5b9060005260206000209060060201600401805490506115e291906124fa565b815481106115f3576115f26124cb565b5b9060005260206000200154905060018281548110611614576116136124cb565b5b90600052602060002090600602016004018054806116355761163461252e565b5b600190038181906000526020600020016000905590556000600260003373ffffffffffffffffffffffffffffffffffffffff1673ffffffffffffffffffffffffffffffffffffffff1681526020019081526020016000206001016001816001815401808255809150500390600052602060002090600202019050828160000181905550818160010181905550600183815481106116d5576116d46124cb565b5b906000526020600020906006020160030160008154809291906116f7906127a0565b91905055503360018481548110611711576117106124cb565b5b9060005260206000209060060201600501600084815260200190815260200160002060006101000a81548173ffffffffffffffffffffffffffffffffffffffff021916908373ffffffffffffffffffffffffffffffffffffffff160217905550505050565b60007f01ffc9a7000000000000000000000000000000000000000000000000000000007bffffffffffffffffffffffffffffffffffffffffffffffffffffffff1916827bffffffffffffffffffffffffffffffffffffffffffffffffffffffff1916149050919050565b600033905090565b6117f28282610d62565b611881576118178173ffffffffffffffffffffffffffffffffffffffff166014611a46565b6118258360001c6020611a46565b6040516020016118369291906128bd565b6040516020818303038152906040526040517f08c379a00000000000000000000000000000000000000000000000000000000081526004016118789190612241565b60405180910390fd5b5050565b61188f8282610d62565b61196157600160008084815260200190815260200160002060000160008373ffffffffffffffffffffffffffffffffffffffff1673ffffffffffffffffffffffffffffffffffffffff16815260200190815260200160002060006101000a81548160ff0219169083151502179055506119066117e0565b73ffffffffffffffffffffffffffffffffffffffff168173ffffffffffffffffffffffffffffffffffffffff16837f2f8788117e7eff1d82e926ec794901d17c78024a50270940304540a733656f0d60405160405180910390a45b5050565b61196f8282610d62565b15611a4257600080600084815260200190815260200160002060000160008373ffffffffffffffffffffffffffffffffffffffff1673ffffffffffffffffffffffffffffffffffffffff16815260200190815260200160002060006101000a81548160ff0219169083151502179055506119e76117e0565b73ffffffffffffffffffffffffffffffffffffffff168173ffffffffffffffffffffffffffffffffffffffff16837ff6391f5c32d9c69d2a47ea670b442974b53935d1edc7fd64eb21e047a839171b60405160405180910390a45b5050565b606060006002836002611a599190612587565b611a639190611d5e565b67ffffffffffffffff811115611a7c57611a7b611e9e565b5b6040519080825280601f01601f191660200182016040528015611aae5781602001600182028036833780820191505090505b5090507f300000000000000000000000000000000000000000000000000000000000000081600081518110611ae657611ae56124cb565b5b60200101907effffffffffffffffffffffffffffffffffffffffffffffffffffffffffffff1916908160001a9053507f780000000000000000000000000000000000000000000000000000000000000081600181518110611b4a57611b496124cb565b5b60200101907effffffffffffffffffffffffffffffffffffffffffffffffffffffffffffff1916908160001a90535060006001846002611b8a9190612587565b611b949190611d5e565b90505b6001811115611c34577f3031323334353637383961626364656600000000000000000000000000000000600f861660108110611bd657611bd56124cb565b5b1a60f81b828281518110611bed57611bec6124cb565b5b60200101907effffffffffffffffffffffffffffffffffffffffffffffffffffffffffffff1916908160001a905350600485901c945080611c2d9061255d565b9050611b97565b5060008414611c78576040517f08c379a0000000000000000000000000000000000000000000000000000000008152600401611c6f90612943565b60405180910390fd5b8091505092915050565b828054611c8e90612670565b90600052602060002090601f016020900481019282611cb05760008555611cf7565b82601f10611cc957805160ff1916838001178555611cf7565b82800160010185558215611cf7579182015b82811115611cf6578251825591602001919060010190611cdb565b5b509050611d049190611d08565b5090565b5b80821115611d21576000816000905550600101611d09565b5090565b6000819050919050565b7f4e487b7100000000000000000000000000000000000000000000000000000000600052601160045260246000fd5b6000611d6982611d25565b9150611d7483611d25565b9250827fffffffffffffffffffffffffffffffffffffffffffffffffffffffffffffffff03821115611da957611da8611d2f565b5b828201905092915050565b6000604051905090565b600080fd5b600080fd5b60007fffffffff0000000000000000000000000000000000000000000000000000000082169050919050565b611dfd81611dc8565b8114611e0857600080fd5b50565b600081359050611e1a81611df4565b92915050565b600060208284031215611e3657611e35611dbe565b5b6000611e4484828501611e0b565b91505092915050565b60008115159050919050565b611e6281611e4d565b82525050565b6000602082019050611e7d6000830184611e59565b92915050565b600080fd5b600080fd5b6000601f19601f8301169050919050565b7f4e487b7100000000000000000000000000000000000000000000000000000000600052604160045260246000fd5b611ed682611e8d565b810181811067ffffffffffffffff82111715611ef557611ef4611e9e565b5b80604052505050565b6000611f08611db4565b9050611f148282611ecd565b919050565b600067ffffffffffffffff821115611f3457611f33611e9e565b5b611f3d82611e8d565b9050602081019050919050565b82818337600083830152505050565b6000611f6c611f6784611f19565b611efe565b905082815260208101848484011115611f8857611f87611e88565b5b611f93848285611f4a565b509392505050565b600082601f830112611fb057611faf611e83565b5b8135611fc0848260208601611f59565b91505092915050565b611fd281611d25565b8114611fdd57600080fd5b50565b600081359050611fef81611fc9565b92915050565b60008060006060848603121561200e5761200d611dbe565b5b600084013567ffffffffffffffff81111561202c5761202b611dc3565b5b61203886828701611f9b565b935050602061204986828701611fe0565b925050604061205a86828701611fe0565b9150509250925092565b61206d81611d25565b82525050565b60006020820190506120886000830184612064565b92915050565b6000819050919050565b6120a18161208e565b81146120ac57600080fd5b50565b6000813590506120be81612098565b92915050565b6000602082840312156120da576120d9611dbe565b5b60006120e8848285016120af565b91505092915050565b6120fa8161208e565b82525050565b600060208201905061211560008301846120f1565b92915050565b600073ffffffffffffffffffffffffffffffffffffffff82169050919050565b60006121468261211b565b9050919050565b6121568161213b565b811461216157600080fd5b50565b6000813590506121738161214d565b92915050565b600080604083850312156121905761218f611dbe565b5b600061219e858286016120af565b92505060206121af85828601612164565b9150509250929050565b600081519050919050565b600082825260208201905092915050565b60005b838110156121f35780820151818401526020810190506121d8565b83811115612202576000848401525b50505050565b6000612213826121b9565b61221d81856121c4565b935061222d8185602086016121d5565b61223681611e8d565b840191505092915050565b6000602082019050818103600083015261225b8184612208565b905092915050565b60006020828403121561227957612278611dbe565b5b600061228784828501611fe0565b91505092915050565b600080604083850312156122a7576122a6611dbe565b5b60006122b585828601612164565b92505060206122c685828601611fe0565b9150509250929050565b600060608201905081810360008301526122ea8186612208565b90506122f96020830185612064565b6123066040830184612064565b949350505050565b6000806040838503121561232557612324611dbe565b5b600061233385828601611fe0565b925050602061234485828601611fe0565b9150509250929050565b6123578161213b565b82525050565b6000602082019050612372600083018461234e565b92915050565b7f446576692065737365726520756e2047616d65204d617374657220706572206560008201527f7365677569726520717565737461206f706572617a696f6e6500000000000000602082015250565b60006123d46039836121c4565b91506123df82612378565b604082019050919050565b60006020820190508181036000830152612403816123c7565b9050919050565b7f416363657373436f6e74726f6c3a2063616e206f6e6c792072656e6f756e636560008201527f20726f6c657320666f722073656c660000000000000000000000000000000000602082015250565b6000612466602f836121c4565b91506124718261240a565b604082019050919050565b6000602082019050818103600083015261249581612459565b9050919050565b7f4e487b7100000000000000000000000000000000000000000000000000000000600052600160045260246000fd5b7f4e487b7100000000000000000000000000000000000000000000000000000000600052603260045260246000fd5b600061250582611d25565b915061251083611d25565b92508282101561252357612522611d2f565b5b828203905092915050565b7f4e487b7100000000000000000000000000000000000000000000000000000000600052603160045260246000fd5b600061256882611d25565b9150600082141561257c5761257b611d2f565b5b600182039050919050565b600061259282611d25565b915061259d83611d25565b9250817fffffffffffffffffffffffffffffffffffffffffffffffffffffffffffffffff04831182151516156125d6576125d5611d2f565b5b828202905092915050565b7f4e487b7100000000000000000000000000000000000000000000000000000000600052601260045260246000fd5b600061261b82611d25565b915061262683611d25565b925082612636576126356125e1565b5b828204905092915050565b7f4e487b7100000000000000000000000000000000000000000000000000000000600052602260045260246000fd5b6000600282049050600182168061268857607f821691505b6020821081141561269c5761269b612641565b5b50919050565b7f536f6e6f2073746174692076656e6475746920747574746920676c692065736560008201527f6d706c617269206469207175657374274974656d000000000000000000000000602082015250565b60006126fe6034836121c4565b9150612709826126a2565b604082019050919050565b6000602082019050818103600083015261272d816126f1565b9050919050565b7f4e6f6e2068616920616262617374616e7a6120476f6c64000000000000000000600082015250565b600061276a6017836121c4565b915061277582612734565b602082019050919050565b600060208201905081810360008301526127998161275d565b9050919050565b60006127ab82611d25565b91507fffffffffffffffffffffffffffffffffffffffffffffffffffffffffffffffff8214156127de576127dd611d2f565b5b600182019050919050565b600081905092915050565b7f416363657373436f6e74726f6c3a206163636f756e7420000000000000000000600082015250565b600061282a6017836127e9565b9150612835826127f4565b601782019050919050565b600061284b826121b9565b61285581856127e9565b93506128658185602086016121d5565b80840191505092915050565b7f206973206d697373696e6720726f6c6520000000000000000000000000000000600082015250565b60006128a76011836127e9565b91506128b282612871565b601182019050919050565b60006128c88261281d565b91506128d48285612840565b91506128df8261289a565b91506128eb8284612840565b91508190509392505050565b7f537472696e67733a20686578206c656e67746820696e73756666696369656e74600082015250565b600061292d6020836121c4565b9150612938826128f7565b602082019050919050565b6000602082019050818103600083015261295c81612920565b905091905056fea26469706673582212201061f4d5974499b4f2e61cbb059e48cd843638fa87f127164cb4def2f0f4372a64736f6c634300080a0033",
  "immutableReferences": {},
  "source": "// SPDX-License-Identifier: MIT\r\npragma solidity ^0.8.0;\r\n\r\nimport \"@openzeppelin/contracts/access/AccessControl.sol\";\r\nimport \"./Struct.sol\";\r\n//SafeMath is generally not needed starting with Solidity 0.8, since the compiler now has built in overflow checking.\r\ncontract Game is AccessControl {\r\n    bytes32 public constant GAME_MASTER = keccak256(\"GAME_MASTER\");\r\n    string public constant GAME_NAME = \"Test Game\";\r\n\r\n    ItemArmory[] private items;\r\n    mapping(address => Stat) private infoPlayer;\r\n\r\n    constructor(){\r\n        _setupRole(GAME_MASTER, msg.sender);\r\n        createItem(\"Sward\", 100, 50);\r\n        createItem(\"Hammer\", 500, 10);\r\n        createItem(\"Bow\", 200, 5);\r\n        createItem(\"Spear\", 1000000000000000000, 1);\r\n    }\r\n\r\n    fallback() external payable {\r\n        infoPlayer[msg.sender].gold += msg.value;\r\n    }//In teoria questo metodo non serve perch msg.data is empty dovrebbe essere sempre empty.\r\n    receive() external payable {\r\n        infoPlayer[msg.sender].gold += msg.value;\r\n    }\r\n\r\n    //Funzioni Generali\r\n    function getGameName() external pure returns (string memory){\r\n        return GAME_NAME;\r\n    }\r\n\r\n    //Funzioni per la gestione dell'armeria (items)\r\n    function createItem(string memory name, uint256 price, uint256 qtyMAX) public {\r\n        require(hasRole(GAME_MASTER, msg.sender), \"Devi essere un Game Master per eseguire questa operazione\");\r\n        ItemArmory storage tmp = items.push(); //.push() appends a zero-initialized element and returns a reference to it.\r\n        tmp.name = name;\r\n        tmp.price = price;\r\n        tmp.qtyMAX = qtyMAX;\r\n\r\n    }\r\n    function getArmoryWeight() external view returns (uint256){\r\n        return items.length;\r\n    }\r\n    function getItemFromArmory(uint256 id) external view returns (string memory, uint256, uint256){\r\n        assert(id >= 0 && id < items.length); //out of bound\r\n        return (items[id].name, items[id].price, items[id].qtyMAX - items[id].delta);\r\n    }\r\n\r\n    //Funzioni per la gestione delle infoPlayer (Gold/Inventory)\r\n    function getGold() external view returns (uint256){\r\n        return infoPlayer[msg.sender].gold;\r\n    }\r\n    function updatePlayerInfo(address who, uint256 goldAdd) external {\r\n        require(hasRole(GAME_MASTER, msg.sender), \"Devi essere un Game Master per eseguire questa operazione\");\r\n        infoPlayer[who].gold += goldAdd;\r\n    }\r\n    function drawback() external {\r\n        require(hasRole(GAME_MASTER, msg.sender), \"Devi essere un Game Master per eseguire questa operazione\");\r\n        payable(msg.sender).transfer(address(this).balance);\r\n    }\r\n\r\n    //Funzioni per la gestione dell'inventario (inventory)\r\n    function getOwner(uint256 id, uint256 num) external view returns (address){\r\n        assert(id >= 0 && id < items.length);\r\n        assert(num >= 0 && num < items[id].qtyMAX);\r\n        return items[id].owners[num];\r\n    }\r\n    function getInventoryWeight() external view returns (uint256){\r\n        return infoPlayer[msg.sender].inventory.length;\r\n    }\r\n    function getItemFromInvenory(uint256 idInventory) external view returns (string memory, uint256, uint256){\r\n        assert(idInventory >= 0 && idInventory < infoPlayer[msg.sender].inventory.length);\r\n        ItemInventory memory  tmp = infoPlayer[msg.sender].inventory[idInventory];\r\n        return (items[tmp.id].name,tmp.id,tmp.num);\r\n    }\r\n\r\n    //Funzioni per la compra vendita di item\r\n    function buyItem(uint256 id) external {\r\n        assert(id >= 0 && id < items.length);//out of bound\r\n        //Se la condizione  falsa fai vedere il messaggio\r\n        require(items[id].delta < items[id].qtyMAX, \"Sono stati venduti tutti gli esemplari di quest'Item\");\r\n        require(infoPlayer[msg.sender].gold >= items[id].price, \"Non hai abbastanza Gold\");\r\n\r\n        infoPlayer[msg.sender].gold -= items[id].price;\r\n\r\n        if (items[id].selledNum.length == 0)\r\n            items[id].selledNum.push(items[id].delta);\r\n\r\n        uint256 selledNum = items[id].selledNum[items[id].selledNum.length - 1];\r\n        items[id].selledNum.pop();\r\n\r\n        ItemInventory storage purchasedItem = infoPlayer[msg.sender].inventory.push();\r\n        purchasedItem.id = id;\r\n        purchasedItem.num = selledNum;\r\n\r\n        items[id].delta++;\r\n        items[id].owners[selledNum] = msg.sender;\r\n    }\r\n    function sellItem(uint256 idInventory) external {\r\n        assert(idInventory >= 0 && idInventory < infoPlayer[msg.sender].inventory.length);\r\n\r\n        ItemInventory memory tmp = infoPlayer[msg.sender].inventory[idInventory];\r\n\r\n        infoPlayer[msg.sender].inventory[idInventory] = infoPlayer[msg.sender].inventory[infoPlayer[msg.sender].inventory.length - 1];\r\n        infoPlayer[msg.sender].inventory.pop();\r\n\r\n        items[tmp.id].delta--;\r\n        delete items[tmp.id].owners[tmp.num];\r\n        items[tmp.id].selledNum.push(tmp.num);\r\n\r\n        infoPlayer[msg.sender].gold += (items[tmp.id].price * 80) / 100;\r\n    }\r\n\r\n}\r\n",
  "sourcePath": "C:\\Users\\Gennaro Pio Rimoli\\IdeaProjects\\Meta\\src\\main\\resources\\contracts\\Game.sol",
  "compiler": {
    "name": "solc",
    "version": "0.8.10+commit.fc410830.Emscripten.clang"
  },
  "schemaVersion": "3.4.3",
  "updatedAt": "2022-01-22T22:47:49.300Z",
  "networkType": "ethereum",
  "devdoc": {
    "kind": "dev",
    "methods": {
      "getRoleAdmin(bytes32)": {
        "details": "Returns the admin role that controls `role`. See {grantRole} and {revokeRole}. To change a role's admin, use {_setRoleAdmin}."
      },
      "grantRole(bytes32,address)": {
        "details": "Grants `role` to `account`. If `account` had not been already granted `role`, emits a {RoleGranted} event. Requirements: - the caller must have ``role``'s admin role."
      },
      "hasRole(bytes32,address)": {
        "details": "Returns `true` if `account` has been granted `role`."
      },
      "renounceRole(bytes32,address)": {
        "details": "Revokes `role` from the calling account. Roles are often managed via {grantRole} and {revokeRole}: this function's purpose is to provide a mechanism for accounts to lose their privileges if they are compromised (such as when a trusted device is misplaced). If the calling account had been revoked `role`, emits a {RoleRevoked} event. Requirements: - the caller must be `account`."
      },
      "revokeRole(bytes32,address)": {
        "details": "Revokes `role` from `account`. If `account` had been granted `role`, emits a {RoleRevoked} event. Requirements: - the caller must have ``role``'s admin role."
      },
      "supportsInterface(bytes4)": {
        "details": "See {IERC165-supportsInterface}."
      }
    },
    "version": 1
  },
  "userdoc": {
    "kind": "user",
    "methods": {},
    "version": 1
  }
}